:040000008A11112828
:10000800FE00030EF0000408F1000A08F200831253
:1000180003137F08F3008A159A2C8A111328E30129
:100028008313A0308400B5308A1577248A1183168B
:1000380003138A11FB278A11D0008A11FC278A1121
:10004800D1008A11FD278A11D2008A11FE27D30018
:1000580083018A11192E003083120313AB0000307C
:10006800AA000030A9000030A800230822042104B7
:10007800200403198628AC01AC0AA31B51280130BF
:10008800F4000310A00DA10DA20DA30DF40B45283B
:100098000130F4007408AC0741280130F400031063
:1000A800A80DA90DAA0DAB0DF40B532823082702A0
:1000B800031D682822082602031D68282108250236
:1000C800031D682820082402031C79282008A4029C
:1000D8002108031C210FA5022208031C220FA602D7
:1000E8002308031C230FA702281401300310A30CB4
:1000F800A20CA10CA00CFF3E031D7A280130AC0213
:10010800031D51282B08A3002A08A2002908A100D2
:100118002808A000080000308A000408840A820722
:1001280000341F341C341F341E341F341E341F3453
:100138001F341E341F341E341F34013400340A3473
:10014800003464340034E83403341034273454342D
:1001580069346D3465343A342034253430343234DB
:1001680064343A3425343034323464343A342534FF
:100178003034323464342034443461347434653473
:100188003A34203425343034323464342F3425342E
:100198003034323464342F342534303432346434D7
:1001A8000D340A340034543469346D3465344C34B5
:1001B80069346234203454346534733474342034EC
:1001C800503472346F346734723461346D340D34A2
:1001D8000A3400348A1505278A11831203132F085D
:1001E800D5002E08D4002D08D3002C08D2008A157B
:0401F800BA2408001D
:10020000FF0001308A007F08820705298A11E22F4A
:10021000831203133408CC003308CB003208CA0021
:100220003108C9000030A3000030A2000030A10056
:100230003C30A0004C08A7004B08A6004A08A500C7
:100240004908A4008A15B7268A11831203132008CF
:10025000B600350884003608831380000030A30000
:100260000030A2000030A1003C30A0004C08A700E4
:100270004B08A6004A08A5004908A4008A112F20AF
:100280008A11831203132308CC002208CB00210813
:10029000CA002008C9000030A3000030A2000030CE
:1002A000A1003C30A0004C08A7004B08A6004A085B
:1002B000A5004908A4008A15B7268A1183120313E2
:1002C0002008B600350A8400360883138000003009
:1002D000A3000030A2000030A1003C30A0004C0878
:1002E000A7004B08A6004A08A5004908A4008A11E7
:1002F0002F208A11831203132308CC002208CB007D
:100300002108CA002008C9000030A3000030A20064
:100310000030A1001830A0004C08A7004B08A60030
:100320004A08A5004908A4008A15B7268A11831235
:1003300003132008B6003508023E840036088313F4
:1003400080000030A3000030A2000030A10018306F
:10035000A0004C08A7004B08A6004A08A5004908C1
:10036000A4008A112F208A11831203132308CC00C2
:100370002208CB002108CA002008C9000030A300D1
:100380000030A2000030A1000730A0000430B60009
:100390000030B7000030B8000030B9004908B60797
:1003A0004A0803184A0FD529D629B7074B0803185E
:1003B0004B0FDB29DC29B8074C0803184C0AB90796
:1003C0003908A7003808A6003708A5003608A40099
:1003D0008A15B7268A11831203132008013EBA003A
:1003E0003508033E84003A0883138000C7010030BB
:1003F000C5000030C4000030C3000030C200042A31
:100400000130B6003608C7074708B23EAC000730D7
:1004100003180830AD008A1577258A11831203135B
:100420002D082C04031D162A6D30172A6E30BE00CD
:100430000130BF003E08B6003F08B7000030B71BD0
:10044000FF30B800B9003608C20737080311031897
:10045000013E031DC307380803110318013E031DA5
:10046000C407390803110318013E031DC5074208DC
:10047000BA004308BB00BC01BD013D084C02031D8E
:100480004B2A3C084B02031D4B2A3B084A02031D22
:100490004B2A3A0849020318002A4708B6003508D3
:1004A000063E84003608831380004708B23EAC0045
:1004B000073003180830AD008A1577258A1183129A
:1004C00003132D082C04031D672A6D30682A6E3033
:1004D000C0000130C1004008B6004108B70000303C
:1004E000B71BFF30B800B9003608C2023708031C3A
:1004F000370F7B2A7C2AC3023808031C380F812A55
:10050000822AC4023908031C390F872A882AC502A7
:100510004208C9024308031C430FCA024408031CD3
:10052000440FCB024508031C450FCC020030C50028
:100530000030C4000030C3000030C200C801C60152
:10054000C8010C3048020318FC2A4808013A031D70
:10055000BD2A4708B23EAC00073003180830AD0092
:100560008A1577258A11831203132D082C04031989
:10057000BB2A1D30C32A1C30C32A4808013E840010
:100580008A118F208A11B6003608C6004608B600C8
:10059000B701B801B90139084C02031DD92A38083E
:1005A0004B02031DD92A37084A02031DD92A3608EF
:1005B0004902031CFC2A4608B600B701B801B9017C
:1005C0003608C9023708031C370FE72AE82ACA028F
:1005D0003808031C380FED2AEE2ACB023908031C19
:1005E000390FF32AF42ACC020130B6003608C807C6
:1005F0000C304802031CA52A4808013EB600350805
:10060000053E84003608831380004908013EB60089
:100610003508043E84003608800008008312031366
:10062000BF003F08063E840083130008B500B601F2
:10063000B701B8013808A3003708A2003608A100A6
:100640003508A0000130A700E130A6003330A50036
:100650008030A4008A152D268A11831203132308E3
:10066000BC002208BB002108BA002008B900BD0167
:10067000BE013F08063E84003E08803AB500803047
:100680003502031D462B831300083D020318702B0F
:10069000831203133D08B23EAC003E080318013E2E
:1006A000073EAD008A1577258A11831203132D08A2
:1006B0002C040319692B8030B907513003185230CC
:1006C000BA07013003180230BB07003003180130AD
:1006D000BC070130BD070318BE0A0030BE07392B26
:1006E000013083120313BD000030BE003F08053EF9
:1006F00084003E08803AB50080303502031D832B0C
:10070000831300083D020318E92B02308312031300
:100710003D063E04031DAE2B3F08063E84008313B6
:100720000008B23EAC00073003180830AD008A154F
:1007300077258A11831203132D082C040319AE2B7D
:100740008030B9073B3003183C30BA072630031815
:100750002730BB07003003180130E12B3D08FF3E76
:10076000013E84008A118F208A11B500B601B701BD
:10077000B8013808A3003708A2003608A1003508E0
:10078000A0000030A7000130A6005130A500803045
:10079000A4008A152D268A11831203132008B90795
:1007A000210803110318013E031DBA072208031193
:1007B0000318013E031DBB07230803110318013E64
:1007C000031DBC070130BD070318BE0A0030BE0779
:1007D000762B831203133F08043E84008313000822
:1007E000FF3EA000FF3003180030A100A201A11BB2
:1007F000A2032208A3000030A7000130A600513058
:10080000A5008030A4008A152D268A1183120313B7
:100810002008B907210803110318013E031DBA0778
:10082000220803110318013E031DBB07230803110F
:100830000318013E031DBC073F08023E84008313DA
:100840000008B500B601B701B8013808A3003708A1
:10085000A2003608A1003508A0000030A700003033
:10086000A6000E30A5001030A4008A152D268A118E
:10087000831203132008B907210803110318013E4E
:10088000031DBA07220803110318013E031DBB070D
:10089000230803110318013E031DBC073F0A84000F
:1008A00083130008B500B601B701B8013808A300EA
:1008B0003708A2003608A1003508A0000030A700C4
:1008C0000030A6000030A5003C30A4008A152D267B
:1008D0008A11831203132008B90721080311031892
:1008E000013E031DBA07220803110318013E031D30
:1008F000BB07230803110318013E031DBC073F0873
:10090000840083130008B500B601B701B8013508AB
:10091000B907360803110318013E031DBA0737084B
:1009200003110318013E031DBB0738080311031808
:10093000013E031DBC073C08B4003B08B3003A0865
:10094000B2003908B100080083120313C2002C3032
:10095000B8003808BB00013083120313C207FF3010
:10096000420784008A118F208A11B8003808C50018
:10097000C508031908004508253A0319C42C450881
:100980008A157F248A11AB2C83120313C301C4017F
:10099000C101CF2C41150130B8003808C207420808
:1009A00084008A118F208A11303A0319CA2CD82C5E
:1009B000420884008A118F208A118A158C248A119A
:1009C000031C1C2D83120313C301C4010A308312BC
:1009D0000313A0000030A1004408A301A3074308AB
:1009E000A201A2078A15F5248A1183120313210894
:1009F000C401C4072008C301C307420884008A1148
:100A00008F208A11D03EB800FF3003180030B900A3
:100A10003808C3070318C40A3908C4070130B800EE
:100A20003808C207420884008A118F208A118A156B
:100A30008C248A110318E62C013083120313C20799
:100A4000FF30420784008A118F208A11C500003AC6
:100A50000319182E643A0319312D0D3A0319312D5B
:100A6000AB2C831203133B08840083130008BD00E2
:100A7000840A0008BE000230B8003808BB07BE1F59
:100A80004A2D0330B8003808C104BD09BE09BD0AAB
:100A90000319BE0AC501C50A4508053A03196D2D9B
:100AA0004508B80038070D3E84008A118F208A114E
:100AB000B9008A118F208A11BA003A083E02031D3C
:100AC000632D39083D02031C6D2D0130B800380834
:100AD000C5074508053A031D502D44084304031972
:100AE0007B2D4108033903197B2DFF30C307031801
:100AF000C40AFF30C4074508B800B901B81BB903E0
:100B00003908803ABA004408803A3A02031D8A2D17
:100B10004308380203189A2D831203134508B800BE
:100B2000B901B81BB9033808C3023908031CC40350
:100B3000C4029E2D83120313C301C401411DBB2DAA
:100B4000410803390319A82D2D308A157F248A11F5
:100B500083120313440843040319D72D30308A1538
:100B60007F248A11FF3083120313C3070318C40ABA
:100B7000FF30C407AA2D440843040319CF2D2030A9
:100B80008A157F248A11FF3083120313C3070318C9
:100B9000C40AFF30C40744084304031DBF2D4108A5
:100BA00003390319D72D2D308A157F248A1183121A
:100BB00003134508B8003808BC00FF308312031344
:100BC000B8003808BC073C08FF3A0319AB2C0A30C0
:100BD000A7000030A8003C08B80038070D3E84008C
:100BE0008A118F208A11A0008A118F208A11A100FA
:100BF0003E08A301A3073D08A201A2078A15ED251F
:100C00008A11831203132108AA01AA072008A90147
:100C1000A9078A1541258A11831203132708303E3C
:100C2000B9003908C50045088A157F248A11DD2DD1
:100C30000800831603139B01FF30850004308600F3
:100C40000030BC000030BB000030BA000030B900FA
:100C50000E3083120313D600560883160313C30005
:100C6000C201C20AC101C10A0D3083120313D600AA
:100C7000560883160313BF00373083120313D600C0
:100C8000560883160313BE001E3083120313D600CA
:100C9000560883160313BD008A15AA248A11BD3095
:100CA0008A110E238A118312031334088316031347
:100CB000C70083120313330883160313C60083127D
:100CC0000313320883160313C5008312031331087C
:100CD00083160313C400470883120313A700831667
:100CE0000313460883120313A60083160313450853
:100CF00083120313A50083160313440883120313FE
:100D0000A4008A1176278A11003083120313BB00D6
:100D10000130BA005130B9008030B80001308A1576
:100D2000B2258A1143308A11A4248A118316031331
:100D3000390983120313D600831603133A09831269
:100D40000313D700831603133B0983120313D80040
:100D5000831603133C0983120313D900D60A03191F
:100D6000D70A0319D80A0319D90A8A15CA248A117D
:100D7000831203132008D60721080318210FC12E60
:100D8000C22ED70722080318220FC72EC82ED80755
:100D900023080318230AD90700305902031DDA2E4D
:100DA00001305802031DDA2EE8305702031DDA2EF7
:100DB00059305602031C962E8A11EE208A118A158C
:100DC000CA248A1183120313230883160313BC0059
:100DD00083120313220883160313BB008312031329
:100DE000210883160313BA00831203132008831605
:100DF0000313B9008A1505278A11831203132F08DC
:100E000083160313B800831203132E0883160313EB
:100E1000B700831203132D0883160313B600831241
:100E200003132C0883160313B50038088312031329
:100E3000B40083160313370883120313B300831619
:100E40000313360883120313B20083160313350805
:100E500083120313B100BD30D6005608B5008A11C5
:100E600008218A11831603133F0883120313D60047
:100E7000D7015608AC005708AD00831603133E088F
:100E800083120313D800D9015808AE005908AF00E7
:100E9000831603133D0883120313DA00DB015A089B
:100EA000B0005B08B10083160313410883120313DB
:100EB000DC00DD015C08B2005D08B300831603139B
:100EC000420883120313DE00DF015E08B4005F08EE
:100ED000B50083160313430883120313E000E101F6
:100EE0006008B6006108B7001730932E8312031311
:100EF0002708F9002608F8002508F7002408F6005E
:100F0000240883160313500783120313A80000302C
:100F1000031801302507AA010318AA0A8316031330
:100F2000510783120313A9000318AA0A26082A07E7
:100F3000AB010318AB0A8316031352078312031382
:100F4000AA000318AB0A27082B07831603135307BD
:100F500083120313AB002B0883160313CF008312F5
:100F600003132A0883160313CE00831203132908E0
:100F700083160313CD00831203132808831603136B
:100F8000CC00023083120313A8002808E2008A155F
:100F9000CA2483120313230883160313CB0083127E
:100FA0000313220883160313CA00831203132108B4
:100FB00083160313C9008312031320088316031337
:100FC000C800080083160313470883120313A30005
:100FD00083160313460883120313A2008316031318
:100FE000450883120313A1008316031344088312D8
:0E0FF0000313A0000800803451340134003493
:1018EE0064008001840A0406031900340406782C6F
:1018FE00F4002630831603139800831203139817EF
:10190E00740899000C1A0800892CF500F4013A307D
:10191E0075020318982C30307502031C982CF401B4
:10192E00F40A740C08008A15DD248A1573088312D4
:10193E000313FF0072088A0071088400700E830082
:10194E00FE0E7E0E09008312031390018E018F018D
:10195E000C10831603130C148B170B1731308312D4
:10196E00031390000800831203135508D000540887
:10197E00CF005308CE005208CD008A156E2683166E
:10198E0003132F0808008A151A25A030840083132C
:10199E00000883120313A000840A0008A100840A21
:1019AE000008A200840A0008A30008008312031393
:1019BE000C1C0800013083160313AA07003003180D
:1019CE000130AB07003003180130AC0700300318AC
:1019DE000130AD07831203130C100800F401F5015A
:1019EE0083120313201C012D2208F4070318F50A95
:1019FE002308F50701300310A20DA30DFF3E031DB2
:101A0E00022D01300310A10CA00CFF3E031D092D69
:101A1E0021082004031DF72C7508A101A1077408E5
:101A2E00A001A0070800831603130C1400008316F0
:101A3E0003130C10831203130E08F400740883169C
:101A4E000313A000831203130F08F4007408831607
:101A5E000313A1002D08A5002C08A4002B08A30039
:101A6E002A08A200831203130C181A2D83160313CF
:101A7E000C14080083120313280827040319702D71
:101A8E00AB01AB0AA81B572D01300310A70DA80DF3
:101A9E00FF3E031D4C2D0130F5007508AB07492D97
:101AAE0028082A02031D5D2D27082902031C652D17
:101ABE002708A9022808031CAA03AA020130031052
:101ACE00A80CA70CFF3E031D662D0130AB02031DB3
:101ADE00572D2A08A801A8072908A701A70708005B
:101AEE0083120313B001B00A03302C05AE00003090
:101AFE002D05AF002F082E04031D982D6430A7006E
:101B0E000030A8002D08AA01AA072C08A901A907D0
:101B1E008A1541258A158312031328082704031DED
:101B2E00AA2D9030A7000130A8002D08AA01AA07FF
:101B3E002C08A901A9078A15412583120313280829
:101B4E002704031DB0013008AE00AF012E08AC0013
:101B5E002F08AD00080083120313BC00BC08031944
:101B6E0008003C08F5007508E3003B083A04390408
:101B7E0038040319D82D3B0883160313D3008312A0
:101B8E0003133A0883160313D20083120313390882
:101B9E0083160313D100831203133808831603131D
:101BAE00E12D003083160313D3000130D2005130E3
:101BBE00D1008030D0007908CF007808CE007708A9
:101BCE00CD007608CC008A15052708008312031372
:101BDE00A501A601210820040319262EA401A40A9A
:101BEE00A11B052E01300310A00DA10DFF3E031DFC
:101BFE00FA2D0130F4007408A407F72D01300310FC
:101C0E00A50DA60DFF3E031D062E21082302031D62
:101C1E00122E20082202031C1B2E2008A2022108CD
:101C2E00031CA303A302251401300310A10CA00C66
:101C3E00FF3E031D1C2E0130A402031D052E260897
:101C4E00A101A1072508A001A007080000308312FA
:101C5E000313AB000030AA000030A9000030A8002A
:101C6E00201C4D2E2408A807250803110318013E39
:101C7E00031DA907260803110318013E031DAA0719
:101C8E00270803110318013E031DAB070130F400B2
:101C9E000310A40DA50DA60DA70DF40B4F2E0130AC
:101CAE000310A30CA20CA10CA00CFF3E031D572E7B
:101CBE002308220421042004031D372E2B08A30021
:101CCE002A08A2002908A1002808A00008008312F3
:101CDE0003135008831603132906031D8C2E83123B
:101CEE0003134F08831603132806031D8C2E83122D
:101CFE0003134E08831603132706031D8C2E83121F
:101D0E0003134D08831603132606031908008312C6
:101D1E000313500883160313A900831203134F08ED
:101D2E0083160313A800831203134E08831603139E
:101D3E00A700831203134D0883160313A600831204
:101D4E0003135008B4004F08B3004E08B2004D08FC
:101D5E00B100AE30D1005108B5008A11082108003B
:101D6E008312031323082204210420040319FC2EDA
:101D7E00F501F50AA31BD12E0130F4000310A00DBE
:101D8E00A10DA20DA30DF40BC52E0130F4007408A5
:101D9E00F507C12E23082702031DDF2E2208260277
:101DAE00031DDF2E21082502031DDF2E200824022D
:101DBE00031CEF2E2008A4022108031C210FA502EC
:101DCE002208031C220FA6022308031C230FA702BE
:101DDE0001300310A30CA20CA10CA00CFF3E031D9E
:101DEE00F02E0130F502031DD12E2708A300260880
:101DFE00A2002508A1002408A000080000308312CC
:101E0E000313B7000030B6000030B5000030B40048
:101E1E00831603134F087902031D1F2F4E087802F5
:101E2E00031D1F2F4D087702031D1F2F4C0876022E
:101E3E00031CB12F8312031363080319B12F630818
:101E4E008A1100218A15831203132308B700220872
:101E5E00B6002108B5002008B40037083604350452
:101E6E0034040319462F3708A7003608A600350894
:101E7E00A5003408A4008A1176278A15AF2F76089C
:101E8E0083160313500783120313B0000030031898
:101E9E0001307707B2010318B20A831603135107F4
:101EAE0083120313B1000318B20A78083207B30184
:101EBE000318B30A83160313520783120313B200D7
:101ECE000318B30A790833078316031353078312D3
:101EDE000313B300330883160313CF0083120313C7
:101EEE00320883160313CE008312031331088316B0
:101EFE000313CD0083120313300883160313CC0093
:101F0E00003083120313E208031D0130B0003008C5
:101F1E00E200B12F0130F607003003180130F70749
:101F2E00003003180130F807003003180130F907AC
:101F3E00583083160313C807E8300318E930C90771
:101F4E00013003180230CA07003003180130CB07E6
:101F5E008312031383160313480983120313B0006D
:101F6E0083160313490983120313B1008316031357
:101F7E004A0983120313B200831603134B0983120B
:101F8E000313B300B00A0319B10A0319B20A0319F5
:101F9E00B30A8A15CA248A15831203132008B007C0
:101FAE0021080318210FDC2FDD2FB107220803189B
:101FBE00220FE22FE32FB20723080318230AB307D9
:101FCE0000303302031DF52F01303202031DF52FB1
:101FDE00E8303102031DF52F583030020318912FCF
:101FEE007908AF007808AE007708AD007608AC002F
:021FFE000800D9
:04400E0029FFFCFF8B
:00000001FF
