:040000008A11112828
:10000800FE00030EF0000408F1000A08F200831253
:1000180003137F08F3008A15192D8A111328F60196
:10002800F701F801F901E20183160313BB01BC01D2
:10003800BD01BE01BF01C001831203138A11FA2753
:100048008A11DE008A11FB278A11DF008A11FC273A
:100058008A11E0008A11FD27E10083018A11192E17
:1000680000308A000408840A820700341F341C34D4
:100078001F341E341F341E341F341F341E341F34E3
:100088001E341F34013400340A340034643400341C
:10009800E834033410342734543469346D34653407
:1000A8003A34203425343034323464343A34253404
:1000B8003034323464343A342534303432346434AD
:1000C800203444346134743465343A34203425346B
:1000D8003034323464342F34253430343234643498
:1000E8002F3425343034323464340D340A34003437
:1000F800543469346D3465344C3469346234203492
:1001080054346534733474342034503472346F3456
:100118006734723461346D340D340A340034831218
:1001280003132708DC002608DB002508DA0024086A
:10013800D90024085E07A8000030031801302507FD
:10014800AA010318AA0A5F07A9000318AA0A260821
:100158002A07AB010318AB0A6007AA000318AB0A09
:1001680027082B076107AB002B0883160313BA0077
:10017800831203132A0883160313B9008312031387
:10018800290883160313B80083120313280883165B
:100198000313B700023083120313A8002808DD00F8
:1001A8008A15292583120313230883160313B6001F
:1001B80083120313220883160313B5008312031353
:1001C800210883160313B40083120313200883162F
:1001D8000313B30008008312031390018E018F01EB
:1001E8000C10831603130C148B170B173130831262
:0601F80003139000080053
:10020000FF0001308A007F08820705298A15502DDA
:10021000831203133408CC003308CB003208CA0021
:100220003108C9000030A3000030A2000030A10056
:100230003C30A0004C08A7004B08A6004A08A500C7
:100240004908A4008A15B9268A11831203132008CD
:10025000B600350884003608831380000030A30000
:100260000030A2000030A1003C30A0004C08A700E4
:100270004B08A6004A08A5004908A4008A11732764
:100280008A11831203132308CC002208CB00210813
:10029000CA002008C9000030A3000030A2000030CE
:1002A000A1003C30A0004C08A7004B08A6004A085B
:1002B000A5004908A4008A15B9268A1183120313E0
:1002C0002008B600350A8400360883138000003009
:1002D000A3000030A2000030A1003C30A0004C0878
:1002E000A7004B08A6004A08A5004908A4008A11E7
:1002F00073278A11831203132308CC002208CB0032
:100300002108CA002008C9000030A3000030A20064
:100310000030A1001830A0004C08A7004B08A60030
:100320004A08A5004908A4008A15B9268A11831233
:1003300003132008B6003508023E840036088313F4
:1003400080000030A3000030A2000030A10018306F
:10035000A0004C08A7004B08A6004A08A5004908C1
:10036000A4008A1173278A11831203132308CC0077
:100370002208CB002108CA002008C9000030A300D1
:100380000030A2000030A1000730A0000430B60009
:100390000030B7000030B8000030B9004908B60797
:1003A0004A0803184A0FD529D629B7074B0803185E
:1003B0004B0FDB29DC29B8074C0803184C0AB90796
:1003C0003908A7003808A6003708A5003608A40099
:1003D0008A15B9268A11831203132008013EBA0038
:1003E0003508033E84003A0883138000C7010030BB
:1003F000C5000030C4000030C3000030C200042A31
:100400000130B6003608C7074708B23EAC000730D7
:1004100003180830AD008A15FD258A1183120313D5
:100420002D082C04031D162A6D30172A6E30BE00CD
:100430000130BF003E08B6003F08B7000030B71BD0
:10044000FF30B800B9003608C20737080311031897
:10045000013E031DC307380803110318013E031DA5
:10046000C407390803110318013E031DC5074208DC
:10047000BA004308BB00BC01BD013D084C02031D8E
:100480004B2A3C084B02031D4B2A3B084A02031D22
:100490004B2A3A0849020318002A4708B6003508D3
:1004A000063E84003608831380004708B23EAC0045
:1004B000073003180830AD008A15FD258A11831214
:1004C00003132D082C04031D672A6D30682A6E3033
:1004D000C0000130C1004008B6004108B70000303C
:1004E000B71BFF30B800B9003608C2023708031C3A
:1004F000370F7B2A7C2AC3023808031C380F812A55
:10050000822AC4023908031C390F872A882AC502A7
:100510004208C9024308031C430FCA024408031CD3
:10052000440FCB024508031C450FCC020030C50028
:100530000030C4000030C3000030C200C801C60152
:10054000C8010C3048020318FC2A4808013A031D70
:10055000BD2A4708B23EAC00073003180830AD0092
:100560008A15FD258A11831203132D082C04031903
:10057000BB2A1D30C32A1C30C32A4808013E840010
:100580008A1134208A11B6003608C6004608B60023
:10059000B701B801B90139084C02031DD92A38083E
:1005A0004B02031DD92A37084A02031DD92A3608EF
:1005B0004902031CFC2A4608B600B701B801B9017C
:1005C0003608C9023708031C370FE72AE82ACA028F
:1005D0003808031C380FED2AEE2ACB023908031C19
:1005E000390FF32AF42ACC020130B6003608C807C6
:1005F0000C304802031CA52A4808013EB600350805
:10060000053E84003608831380004908013EB60089
:100610003508043E84003608800008008312031366
:10062000BF003F08063E840083130008B500B601F2
:10063000B701B8013808A3003708A2003608A100A6
:100640003508A0000130A700E130A6003330A50036
:100650008030A4008A1578268A1183120313230898
:10066000BC002208BB002108BA002008B900BD0167
:10067000BE013F08063E84003E08803AB500803047
:100680003502031D462B831300083D020318702B0F
:10069000831203133D08B23EAC003E080318013E2E
:1006A000073EAD008A15FD258A11831203132D081C
:1006B0002C040319692B8030B907513003185230CC
:1006C000BA07013003180230BB07003003180130AD
:1006D000BC070130BD070318BE0A0030BE07392B26
:1006E000013083120313BD000030BE003F08053EF9
:1006F00084003E08803AB50080303502031D832B0C
:10070000831300083D020318E92B02308312031300
:100710003D063E04031DAE2B3F08063E84008313B6
:100720000008B23EAC00073003180830AD008A154F
:10073000FD258A11831203132D082C040319AE2BF7
:100740008030B9073B3003183C30BA072630031815
:100750002730BB07003003180130E12B3D08FF3E76
:10076000013E84008A1134208A11B500B601B70118
:10077000B8013808A3003708A2003608A1003508E0
:10078000A0000030A7000130A6005130A500803045
:10079000A4008A1578268A11831203132008B9074A
:1007A000210803110318013E031DBA072208031193
:1007B0000318013E031DBB07230803110318013E64
:1007C000031DBC070130BD070318BE0A0030BE0779
:1007D000762B831203133F08043E84008313000822
:1007E000FF3EA000FF3003180030A100A201A11BB2
:1007F000A2032208A3000030A7000130A600513058
:10080000A5008030A4008A1578268A11831203136C
:100810002008B907210803110318013E031DBA0778
:10082000220803110318013E031DBB07230803110F
:100830000318013E031DBC073F08023E84008313DA
:100840000008B500B601B701B8013808A3003708A1
:10085000A2003608A1003508A0000030A700003033
:10086000A6000E30A5001030A4008A1578268A1143
:10087000831203132008B907210803110318013E4E
:10088000031DBA07220803110318013E031DBB070D
:10089000230803110318013E031DBC073F0A84000F
:1008A00083130008B500B601B701B8013808A300EA
:1008B0003708A2003608A1003508A0000030A700C4
:1008C0000030A6000030A5003C30A4008A15782630
:1008D0008A11831203132008B90721080311031892
:1008E000013E031DBA07220803110318013E031D30
:1008F000BB07230803110318013E031DBC073F0873
:10090000840083130008B500B601B701B8013508AB
:10091000B907360803110318013E031DBA0737084B
:1009200003110318013E031DBB0738080311031808
:10093000013E031DBC073C08B4003B08B3003A0865
:10094000B2003908B100080083120313C2002C3032
:10095000B8003808BB00013083120313C207FF3010
:10096000420784008A1134208A11B8003808C50073
:10097000C508031908004508253A0319C42C450881
:100980008A15FE248A11AB2C83120313C301C40100
:10099000C101CF2C41150130B8003808C207420808
:1009A00084008A1134208A11303A0319CA2CD82CB9
:1009B000420884008A1134208A118A150B258A1175
:1009C000031C1C2D83120313C301C4010A308312BC
:1009D0000313A0000030A1004408A301A3074308AB
:1009E000A201A2078A1569258A118312031321081F
:1009F000C401C4072008C301C307420884008A1148
:100A000034208A11D03EB800FF3003180030B900FE
:100A10003808C3070318C40A3908C4070130B800EE
:100A20003808C207420884008A1134208A118A15C6
:100A30000B258A110318E62C013083120313C20719
:100A4000FF30420784008A1134208A11C500003A21
:100A50000319182E643A0319312D0D3A0319312D5B
:100A6000AB2C831203133B08840083130008BD00E2
:100A7000840A0008BE000230B8003808BB07BE1F59
:100A80004A2D0330B8003808C104BD09BE09BD0AAB
:100A90000319BE0AC501C50A4508053A03196D2D9B
:100AA0004508B80038070D3E84008A1134208A11A9
:100AB000B9008A1134208A11BA003A083E02031D97
:100AC000632D39083D02031C6D2D0130B800380834
:100AD000C5074508053A031D502D44084304031972
:100AE0007B2D4108033903197B2DFF30C307031801
:100AF000C40AFF30C4074508B800B901B81BB903E0
:100B00003908803ABA004408803A3A02031D8A2D17
:100B10004308380203189A2D831203134508B800BE
:100B2000B901B81BB9033808C3023908031CC40350
:100B3000C4029E2D83120313C301C401411DBB2DAA
:100B4000410803390319A82D2D308A15FE248A1176
:100B500083120313440843040319D72D30308A1538
:100B6000FE248A11FF3083120313C3070318C40A3B
:100B7000FF30C407AA2D440843040319CF2D2030A9
:100B80008A15FE248A11FF3083120313C30703184A
:100B9000C40AFF30C40744084304031DBF2D4108A5
:100BA00003390319D72D2D308A15FE248A1183129B
:100BB00003134508B8003808BC00FF308312031344
:100BC000B8003808BC073C08FF3A0319AB2C0A30C0
:100BD000A7000030A8003C08B80038070D3E84008C
:100BE0008A1134208A11A0008A1134208A11A100B0
:100BF0003E08A301A3073D08A201A2078A153826D3
:100C00008A11831203132108AA01AA072008A90147
:100C1000A9078A158E258A11831203132708303EEF
:100C2000B9003908C50045088A15FE248A11DD2D52
:100C30000800831603139B01FF30850004308600F3
:100C40000030A7000030A6000030A5000030A4004E
:100C50000E3083120313CD004D0883160313AE002C
:100C6000AD01AD0AAC01AC0A0D3083120313CD0007
:100C70004D0883160313AA00373083120313CD00E7
:100C80004D0883160313A9001E3083120313CD00F1
:100C90004D0883160313A8008A11EF208A11A8308B
:100CA0008A110E238A118312031334088316031347
:100CB000B20083120313330883160313B1008312A7
:100CC0000313320883160313B00083120313310891
:100CD00083160313AF00320883120313A700831691
:100CE0000313310883120313A6008316031330087D
:100CF00083120313A500831603132F088312031313
:100D0000A4008A1193208A11003083120313BB00C0
:100D10000130BA005130B9008030B80001308A1576
:100D2000C4258A1143308A11A4248A11831603131F
:100D3000240983120313CD0083160313250983129C
:100D40000313CE0083160313260983120313CF0067
:100D500083160313270983120313D000CD0A031946
:100D6000CE0A0319CF0A0319D00A8A1529258A1138
:100D7000831203132008CD0721080318210FC12E69
:100D8000C22ECE0722080318220FC72EC82ECF0767
:100D900023080318230AD00700305002031DDA2E5F
:100DA00001304F02031DDA2EE8304E02031DDA2E09
:100DB00059304D02031C962E8A1529258A1183125B
:100DC0000313230883160313A700831203132208B7
:100DD00083160313A600831203132108831603133B
:100DE000A50083120313200883160313A4008A1599
:100DF00007278A11831203132F0883160313A300F6
:100E0000831203132E0883160313A2008312031305
:100E10002D0883160313A100831203132C088316D5
:100E20000313A000230883120313B40083160313D3
:100E3000220883120313B3008316031321088312BD
:100E40000313B20083160313200883120313B100A7
:100E5000A830CD004D08B5008A1108218A118316EB
:100E600003132A0883120313CD00CE014D08AC00F2
:100E70004E08AD0083160313290883120313CF0015
:100E8000D0014F08AE005008AF00831603132808A6
:100E900083120313D100D2015108B0005208B100EF
:100EA000831603132C0883120313D300D4015308B1
:100EB000B2005408B300831603132D0883120313E2
:100EC000D500D6015508B4005608B50083160313A3
:100ED0002E0883120313D700D8015708B60058080C
:100EE000B7001730932E003083120313AB0000308D
:100EF000AA000030A9000030A80023082204210421
:100F000020040319CA2FAC01AC0AA31B952F013092
:100F1000F4000310A00DA10DA20DA30DF40B892F59
:100F20000130F4007408AC07852F0130F400031081
:100F3000A80DA90DAA0DAB0DF40B972F23082702BE
:100F4000031DAC2F22082602031DAC2F2108250209
:100F5000031DAC2F20082402031CBD2F2008A4026F
:100F60002108031C210FA5022208031C220FA60240
:100F70002308031C230FA702281401300310A30C1D
:100F8000A20CA10CA00CFF3E031DBE2F0130AC0231
:100F9000031D952F2B08A3002A08A2002908A100F1
:100FA0002808A0000800831603130C140000831601
:100FB00003130C10831203130E08F4007408831635
:100FC0000313BB00831203130F08F4007408831685
:100FD0000313BC007908C0007808BF007708BE0082
:100FE0007608BD00831203130C18D32F8316031346
:0C0FF0000C14080080345134013400342B
:1019FC00F4002630831603139800831203139817F0
:101A0C00740899000C1A0800082DF500F4013A30FE
:101A1C0075020318172D30307502031C172DF401B5
:101A2C00F40A740C08008A153C258A157308831275
:101A3C000313FF0072088A0071088400700E830083
:101A4C00FE0E7E0E09008A11D327BB30840083134F
:101A5C00000883120313A000840A0008A100840A62
:101A6C000008A200840A0008A300080083120313D4
:101A7C000C1C08000130F607003003180130F70782
:101A8C00003003180130F807003003180130F90753
:101A9C000C10080083160313320883120313A300DF
:101AAC0083160313310883120313A2008316031346
:101ABC00300883120313A100831603132F0883121B
:101ACC000313A0000800F401F50183120313201C7A
:101ADC00752D2208F4070318F50A2308F5070130C1
:101AEC000310A20DA30DFF3E031D762D0130031034
:101AFC00A10CA00CFF3E031D7D2D21082004031D0D
:101B0C006B2D7508A101A1077408A001A00708009E
:101B1C0083120313280827040319BD2DAB01AB0A4C
:101B2C00A81BA42D01300310A70DA80DFF3E031D0B
:101B3C00992D0130F5007508AB07962D28082A025F
:101B4C00031DAA2D27082902031CB22D2708A90260
:101B5C002808031CAA03AA0201300310A80CA70C26
:101B6C00FF3E031DB32D0130AB02031DA42D2A082B
:101B7C00A801A8072908A701A707080083120313C7
:101B8C00BC00BC08031908003C08F5007508E2000D
:101B9C003B083A04390438040319DC2D3B08E100F6
:101BAC003A08E0003908DF003808E32D0030E10086
:101BBC000130E0005130DF008030DE005C0883161D
:101BCC000313BA00831203135B0883160313B900C3
:101BDC00831203135A0883160313B80083120313DA
:101BEC00590883160313B7008A15072708008312B8
:101BFC000313B001B00A03302C05AE0000302D05E4
:101C0C00AF002F082E04031D1E2E6430A7000030D9
:101C1C00A8002D08AA01AA072C08A901A9078A1552
:101C2C008E258A158312031328082704031D302ED2
:101C3C009030A7000130A8002D08AA01AA072C0893
:101C4C00A901A9078A158E258312031328082704D6
:101C5C00031DB0013008AE00AF012E08AC002F08F8
:101C6C00AD00080083120313A501A601210820046E
:101C7C000319712EA401A40AA11B502E01300310CC
:101C8C00A00DA10DFF3E031D452E0130F40074087C
:101C9C00A407422E01300310A50DA60DFF3E031D17
:101CAC00512E21082302031D5D2E20082202031C45
:101CBC00662E2008A2022108031CA303A3022514EC
:101CCC0001300310A10CA00CFF3E031D672E013048
:101CDC00A402031D502E2608A101A1072508A0016E
:101CEC00A0070800003083120313AB000030AA00D9
:101CFC000030A9000030A800201C982E2408A8074A
:101D0C00250803110318013E031DA907260803111A
:101D1C000318013E031DAA07270803110318013EEF
:101D2C00031DAB070130F4000310A40DA50DA60D87
:101D3C00A70DF40B9A2E01300310A30CA20CA10CCE
:101D4C00A00CFF3E031DA22E230822042104200414
:101D5C00031D822E2B08A3002A08A2002908A1002B
:101D6C002808A0000800831203132308220421046E
:101D7C0020040319FE2EF501F50AA31BD32E013006
:101D8C00F4000310A00DA10DA20DA30DF40BC72E92
:101D9C000130F4007408F507C32E23082702031D35
:101DAC00E12E22082602031DE12E21082502031D27
:101DBC00E12E20082402031CF12E2008A402210885
:101DCC00031C210FA5022208031C220FA6022308C4
:101DDC00031C230FA70201300310A30CA20CA10CAF
:101DEC00A00CFF3E031DF22E0130F502031DD32E75
:101DFC002708A3002608A2002508A1002408A0009B
:101E0C000800003083120313B7000030B600003016
:101E1C00B5000030B400831603133A088312031381
:101E2C005C02031D2F2F831603133908831203132F
:101E3C005B02031D2F2F8316031338088312031321
:101E4C005A02031D2F2F8316031337088312031313
:101E5C005902031CB12F62080319B12F62088A11B1
:101E6C0000218A15831203132308B7002208B60039
:101E7C002108B5002008B4003708360435043404B2
:101E8C000319542F3708A7003608A6003508A500FB
:101E9C003408A4008A1193208A15AF2F83120313E0
:101EAC0059085E07B0000030031801305A07B20120
:101EBC000318B20A5F07B1000318B20A5B083207B5
:101ECC00B3010318B30A6007B2000318B30A5C0825
:101EDC0033076107B300330883160313BA00831268
:101EEC000313320883160313B9008312031331084A
:101EFC0083160313B80083120313300883160313DD
:101F0C00B700003083120313DD08031D0130B0004D
:101F1C003008DD00B12F0130D90700300318013033
:101F2C00DA07003003180130DB07003003180130EA
:101F3C00DC07583083160313B307E8300318E93075
:101F4C00B407013003180230B50700300318013014
:101F5C00B607831203138316031333098312031377
:101F6C00B00083160313340983120313B1008316D4
:101F7C000313350983120313B200831603133609B6
:101F8C0083120313B300B00A0319B10A0319B20A7E
:101F9C000319B30A8A1529258A15831203132008FD
:101FAC00B00721080318210FDC2FDD2FB107220801
:101FBC000318220FE22FE32FB20723080318230A7A
:101FCC00B30700303302031DF52F01303202031D1D
:101FDC00F52FE8303102031DF52F5830300203186D
:101FEC00912F5C08AF005B08AE005A08AD00590891
:041FFC00AC0008002D
:04400E0029FFFCFF8B
:00000001FF
