:040000008A11112828
:10000800FE00030EF0000408F1000A08F200831253
:1000180003137F08F3008A15BE2C8A111328F601F2
:10002800F701F801F901D90183160313C701C801C3
:10003800C901CA01CB01CC01831203138A15AC2470
:100048008A11D5008A15AD248A11D6008A15AE24E6
:100058008A11D7008A15AF24D80083018A115D2E32
:10006800003083120313AB000030AA000030A9004F
:100078000030A800230822042104200403198B2837
:10008800AC01AC0AA31B56280130F4000310A00DE4
:10009800A10DA20DA30DF40B4A280130F400740839
:1000A800AC0746280130F4000310A80DA90DAA0DCD
:1000B800AB0DF40B582823082702031D6D282208CE
:1000C8002602031D6D2821082502031D6D2820081E
:1000D8002402031C7E282008A4022108031C210FE7
:1000E800A5022208031C220FA6022308031C230FC3
:1000F800A702281401300310A30CA20CA10CA00C19
:10010800FF3E031D7F280130AC02031D56282B0833
:10011800A3002A08A2002908A1002808A0000800B6
:1001280000308A000408840A820700341F341C3413
:100138001F341E341F341E341F341F341E341F3422
:100148001E341F34013400340A340034643400345B
:10015800E834033410342734543469346D34653446
:100168003A34203425343034323464343A34253443
:100178003034323464343A342534303432346434EC
:10018800203444346134743465343A3420342534AA
:100198003034323464342F342534303432346434D7
:1001A8002F3425343034323464340D340A34003476
:1001B800543469346D3465344C34693462342034D1
:1001C80054346534733474342034503472346F3496
:1001D8006734723461346D340D340A340034F400F9
:1001E8002630831603139800831203139817740894
:1001F80099000C1A0800FD28FF0001308A007F08CA
:10020800820705298A15052D831203133408CC00AB
:100218003308CB003208CA003108C9000030A300F7
:100228000030A2000030A1003C30A0004C08A7001C
:100238004B08A6004A08A5004908A4008A155426B8
:100248008A11831203133508840020088313800061
:10025800840A210880000030A3000030A20000308A
:10026800A1003C30A0004C08A7004B08A6004A0893
:10027800A5004908A4008A1134208A1183120313A7
:100288002308CC002208CB002108CA002008C90096
:100298000030A3000030A2000030A1003C30A000D4
:1002A8004C08A7004B08A6004A08A5004908A40066
:1002B8008A1554268A11831203133508023E8400D6
:1002C800200883138000840A210880000030A300DE
:1002D8000030A2000030A1003C30A0004C08A7006C
:1002E8004B08A6004A08A5004908A4008A11342032
:1002F8008A11831203132308CC002208CB0021089B
:10030800CA002008C9000030A3000030A200003055
:10031800A1001830A0004C08A7004B08A6004A0806
:10032800A5004908A4008A1554268A1183120313CC
:100338003508043E8400200883138000840A2108BD
:1003480080000030A3000030A2000030A100183067
:10035800A0004C08A7004B08A6004A08A5004908B9
:10036800A4008A1134208A11831203132308CC00B5
:100378002208CB002108CA002008C9000030A300C9
:100388000030A2000030A1000730A0000430B60001
:100398000030B7000030B8000030B9004908B6078F
:1003A8004A0803184A0FD929DA29B7074B0803184E
:1003B8004B0FDF29E029B8074C0803184C0AB90786
:1003C8003908A7003808A6003708A5003608A40091
:1003D8008A1554268A11831203132008013EBA0095
:1003E80021080318013E003EBB0035080C3E84007E
:1003F8003A0883138000840A3B088000C701003054
:10040800C5000030C4000030C3000030C200102A0C
:100418000130B6003608C7074708B23EAC000730BF
:1004280003180830AD008A15D9258A1183120313E1
:100438002D082C04031D222A6D30232A6E30BE009D
:100448000130BF003E08B6003F08B7000030B71BB8
:10045800FF30B800B9003608C2073708031103187F
:10046800013E031DC307380803110318013E031D8D
:10047800C407390803110318013E031DC5074208C4
:10048800BA004308BB00BC01BD013D084C02031D76
:10049800572A3C084B02031D572A3B084A02031DF2
:1004A800572A3A08490203180C2A4708B600B70128
:1004B80035080A3E8400360883138000840A37080A
:1004C80080004708B23EAC00073003180830AD0082
:1004D8008A15D9258A11831203132D082C04031DAC
:1004E800772A6D30782A6E30C0000130C10040088C
:1004F800B6004108B7000030B71BFF30B800B9009C
:100508003608C2023708031C370F8B2A8C2AC3020D
:100518003808031C380F912A922AC4023908031C90
:10052800390F972A982AC5024208C9024308031CB2
:10053800430FCA024408031C440FCB024508031C9E
:10054800450FCC020030C5000030C4000030C300A5
:100558000030C200C801C601C8010C3048020318A7
:100568000C2B4808013A031DCD2A4708B23EAC00BF
:10057800073003180830AD008A15D9258A1183126F
:1005880003132D082C040319CB2A1D30D32A1C3041
:10059800D32A4808013E84008A1194208A11B600A3
:1005A8003608C6004608B600B701B801B9013908CF
:1005B8004C02031DE92A38084B02031DE92A3708B3
:1005C8004A02031DE92A36084902031C0C2B460877
:1005D800B600B701B801B9013608C9023708031CCB
:1005E800370FF72AF82ACA023808031C380FFD2AE1
:1005F800FE2ACB023908031C390F032B042BCC022B
:100608000130B6003608C8070C304802031CB52A6A
:100618004808013EB600003003180130B70035081D
:10062800083E8400360883138000840A3708800057
:100638004908013EB6004A080318013E003EB700CB
:100648003508063E840036088000840A3708800092
:10065800080083120313C10041080A3E8400831373
:100668000008B500840A0008B6003508A00036085E
:10067800A1000030A11BFF30A200A3000130A70099
:10068800E130A6003330A5008030A4008A11BD27D0
:100698008A11831203132308BE002208BD00210813
:1006A800BC002008BB00BF01C00141080A3E84000D
:1006B80083130008B500840A0008B6004008803A91
:1006C800B7003608803A3702031D6C2B35083F0205
:1006D8000318962B831203133F08B23EAC00400860
:1006E8000318013E073EAD008A15D9258A118312E9
:1006F80003132D082C0403198F2B8030BB075130AE
:1007080003185230BC07013003180230BD0700300F
:1007180003180130BE070130BF070318C00A0030B4
:10072800C007592B013083120313BF000030C000EB
:100738004108083E840083130008B500840A0008B5
:10074800B6004008803AB7003608803A3702031DE1
:10075800AF2B35083F0203181B2C023083120313FA
:100768003F064004031DE02B41080A3E8400831322
:100778000008B500840A0008B6003508B23EAC008F
:1007880036080318013E073EAD008A15D9258A119F
:10079800831203132D082C040319E02B8030BB07A8
:1007A8003B3003183C30BC07263003182730BD0700
:1007B800003003180130132C3F08FF3E013E84002F
:1007C8008A1194208A11B500B601B701B80138081A
:1007D800A3003708A2003608A1003508A0000030A1
:1007E800A7000130A6005130A5008030A4008A116E
:1007F800BD278A11831203132008BB0721080311A0
:100808000318013E031DBC07220803110318013E0B
:10081800031DBD07230803110318013E031DBE076E
:100828000130BF070318C00A0030C0079C2B831291
:1008380003134108063E840083130008B500840AA8
:100848000008B6003508FF3EA00036080318013E30
:10085800FF3EA100A201A11BA2032208A3000030B1
:10086800A7000130A6005130A5008030A4008A11ED
:10087800BD278A11831203132008BB07210803111F
:100888000318013E031DBC07220803110318013E8B
:10089800031DBD07230803110318013E031DBE07EE
:1008A8004108043E840083130008B500840A000848
:1008B800B6003508A0003608A1000030A11BFF30A3
:1008C800A200A3000030A7000030A6000E30A5004B
:1008D8001030A4008A11BD278A118312031320083F
:1008E800BB07210803110318013E031DBC0722089A
:1008F80003110318013E031DBD0723080311031844
:10090800013E031DBE074108023E84008313000810
:10091800B500840A0008B6003508A0003608A10012
:100928000030A11BFF30A200A3000030A700003058
:10093800A6000030A5003C30A4008A11BD278A110A
:10094800831203132008BB07210803110318013E73
:10095800031DBC07220803110318013E031DBD0730
:10096800230803110318013E031DBE074108840034
:1009780083130008B500840A0008B6003508B700DC
:100988003608B8000030B81BFF30B900BA00370885
:10099800BB07380803110318013E031DBC073908BB
:1009A80003110318013E031DBD073A08031103187C
:1009B800013E031DBE073E08B4003D08B3003C08D5
:1009C800B2003B08B100080083120313C2002C30A8
:1009D800B8003808BB00013083120313C207FF3088
:1009E800420784008A1194208A11B8003808C5008B
:1009F800C508031908004508253A0319082D4508B4
:100A08008A11F3208A11EF2C83120313C301C40146
:100A1800C101132D41150130B8003808C20742083A
:100A280084008A1194208A11303A03190E2D1C2D46
:100A3800420884008A1194208A118A15B0248A11E8
:100A4800031C602D83120313C301C4010A308312EF
:100A58000313A0000030A1004408A301A307430822
:100A6800A201A2078A151E258A11831203132108E1
:100A7800C401C4072008C301C307420884008A11BF
:100A880094208A11D03EB800FF3003180030B90016
:100A98003808C3070318C40A3908C4070130B80066
:100AA8003808C207420884008A1194208A118A15DE
:100AB800B0248A1103182A2D013083120313C207A8
:100AC800FF30420784008A1194208A11C500003A39
:100AD80003195C2E643A0319752D0D3A0319752D07
:100AE800EF2C831203133B08840083130008BD0016
:100AF800840A0008BE000230B8003808BB07BE1FD1
:100B08008E2D0330B8003808C104BD09BE09BD0ADE
:100B18000319BE0AC501C50A4508053A0319B12DCE
:100B28004508B80038070D3E84008A1194208A11C0
:100B3800B9008A1194208A11BA003A083E02031DAE
:100B4800A72D39083D02031CB12D0130B800380823
:100B5800C5074508053A031D942D440843040319A5
:100B6800BF2D410803390319BF2DFF30C3070318F0
:100B7800C40AFF30C4074508B800B901B81BB90357
:100B88003908803ABA004408803A3A02031DCE2D4B
:100B9800430838020318DE2D831203134508B800F2
:100BA800B901B81BB9033808C3023908031CC403C8
:100BB800C402E22D83120313C301C401411DFF2D9A
:100BC800410803390319EC2D2D308A11F3208A11BD
:100BD800831203134408430403191B2E30308A116F
:100BE800F3208A11FF3083120313C3070318C40AC2
:100BF800FF30C407EE2D440843040319132E203098
:100C08008A11F3208A11FF3083120313C3070318D4
:100C1800C40AFF30C40744084304031D032E4108D7
:100C2800033903191B2E2D308A11F3208A118312E0
:100C380003134508B8003808BC00FF3083120313BB
:100C4800B8003808BC073C08FF3A0319EF2C0A30F3
:100C5800A7000030A8003C08B80038070D3E840003
:100C68008A1194208A11A0008A1194208A11A10067
:100C78003E08A301A3073D08A201A2078A1514266E
:100C88008A11831203132108AA01AA072008A901BF
:100C9800A9078A156A258A11831203132708303E8B
:100CA800B9003908C50045088A11F3208A11212E98
:100CB8000800831603139B01FF308500043086006B
:100CC8000030A7000030A6000030A5000030A400C6
:100CD8000E30B2000030B3000130B0000030B10077
:100CE8000130AE000030AF000D30AC000030AD0078
:100CF8003730AA000030AB001E30A8000030A90031
:100D08008A15CE248A11A8308A112D238A118312BC
:100D18000313340883160313BD0083120313330827
:100D280083160313BC0083120313320883160313BC
:100D3800BB0083120313310883160313BA003D085E
:100D480083120313A700831603133C0883120313AB
:100D5800A600831603133B0883120313A50083160A
:100D680003133A0883120313A4008A15A2268A11D2
:100D7800003083120313BB000130BA005130B900B0
:100D88008030B80001308A15A0258A1143308A11B5
:100D9800E8248A1183160313240983120313CD0050
:100DA80083160313250983120313CE008316031336
:100DB800260983120313CF0083160313270983120E
:100DC8000313D000CD0A0319CE0A0319CF0A031959
:100DD800D00A8A15DE248A11831203132008CD074E
:100DE80021080318210FF92EFA2ECE07220803181E
:100DF800220FFF2E002FCF0723080318230AD0073E
:100E080000305002031D122F01304F02031D122F14
:100E1800E8304E02031D122F59304D02031CCE2E0E
:100E28008A15DE248A1183120313230883160313F9
:100E3800A70083120313220883160313A600831244
:100E48000313210883160313A50083120313200834
:100E580083160313A4008A1500278A11831203132B
:100E68002F0883160313A300831203132E08831677
:100E78000313A200831203132D0883160313A10082
:100E8800831203132C0883160313A000230883126C
:100E98000313B40083160313220883120313B30049
:100EA80083160313210883120313B2008316031356
:100EB800200883120313B100A830CD004D08B500F7
:100EC8008A1108218A11831603132D08831203132C
:100ED800AD01AD07831603132C0883120313AC016D
:100EE800AC07831603132B0883120313AF01AF0754
:100EF800831603132A0883120313AE01AE07831661
:100F08000313290883120313B101B10783160313CE
:100F1800280883120313B001B007831603132F08A0
:100F280083120313B301B307831603132E08831226
:100F38000313B201B2078316031331088312031394
:100F4800B501B50783160313300883120313B401E0
:100F5800B40783160313330883120313B701B707C3
:100F680083160313320883120313B601B60717302A
:100F7800CB2E003083120313AB000030AA000030E0
:100F8800A9000030A800201CDD2F2408A807250888
:100F980003110318013E031DA907260803110318AE
:100FA800013E031DAA07270803110318013E031D6C
:100FB800AB070130F4000310A40DA50DA60DA70D75
:100FC800F40BDF2F01300310A30CA20CA10CA00C12
:100FD800FF3E031DE72F2308220421042004031DDC
:100FE800C72F2B08A3002A08A2002908A100280857
:040FF800A00008004D
:101958008034513401340034F500F4013A30750212
:101968000318BC2C30307502031CBC2CF401F40A9B
:10197800740C08008A15F1248A157308831203135E
:10198800FF0072088A0071088400700E8300FE0E42
:101998007E0E09008312031390018E018F010C1033
:1019A800831603130C148B170B1731308312031390
:1019B800900008008A154325C73084008313000867
:1019C80083120313A000840A0008A100840A0008F7
:1019D800A200840A0008A3000800831203130C1C49
:1019E80008000130F607003003180130F70700300F
:1019F80003180130F807003003180130F9070C10FC
:101A08000800831603133D0883120313A3008316EB
:101A180003133C0883120313A200831603133B0825
:101A280083120313A100831603133A0883120313C6
:101A3800A0000800F401F50183120313201C2A2DCD
:101A48002208F4070318F50A2308F50701300310E4
:101A5800A20DA30DFF3E031D2B2D01300310A10C79
:101A6800A00CFF3E031D322D21082004031D202D4C
:101A78007508A101A1077408A001A0070800831632
:101A880003130C140000831603130C1083120313A2
:101A98000E08F400740883160313C7008312031397
:101AA8000F08F400740883160313C8007908CC00E3
:101AB8007808CB007708CA007608C9008312031398
:101AC8000C18432D831603130C14080083120313F8
:101AD800280827040319992DAB01AB0AA81B802DF0
:101AE80001300310A70DA80DFF3E031D752D013011
:101AF800F5007508AB07722D28082A02031D862DEC
:101B080027082902031C8E2D2708A9022808031C70
:101B1800AA03AA0201300310A80CA70CFF3E031D5C
:101B28008F2D0130AB02031D802D2A08A801A807BC
:101B38002908A701A707080083120313BC00BC08E3
:101B4800031908003C08F5007508D9003B083A0459
:101B5800390438040319B82D3B08D8003A08D700CF
:101B68003908D6003808BF2D0030D8000130D7001A
:101B78005130D6008030D500540883160313C500B1
:101B880083120313530883160313C4008312031329
:101B9800520883160313C3008312031351088316D4
:101BA8000313C2008A150027080083120313B0012B
:101BB800B00A03302C05AE0000302D05AF002F0809
:101BC8002E04031DFA2D6430A7000030A8002D084C
:101BD800AA01AA072C08A901A9078A156A258A1546
:101BE8008312031328082704031D0C2E9030A70026
:101BF8000130A8002D08AA01AA072C08A901A907E5
:101C08008A156A258312031328082704031DB001C7
:101C18003008AE00AF012E08AC002F08AD00080058
:101C280083120313A501A6012108200403194D2ED0
:101C3800A401A40AA11B2C2E01300310A00DA10D94
:101C4800FF3E031D212E0130F4007408A4071E2E48
:101C580001300310A50DA60DFF3E031D2D2E2108F2
:101C68002302031D392E20082202031C422E2008BD
:101C7800A2022108031CA303A302251401300310A8
:101C8800A10CA00CFF3E031D432E0130A402031D2E
:101C98002C2E2608A101A1072508A001A0070800ED
:101CA8008312031323082204210420040319992E04
:101CB800F501F50AA31B6E2E0130F4000310A00DE8
:101CC800A10DA20DA30DF40B622E0130F4007408CF
:101CD800F5075E2E23082702031D7C2E2208260204
:101CE800031D7C2E21082502031D7C2E20082402BA
:101CF800031C8C2E2008A4022108031C210FA50216
:101D08002208031C220FA6022308031C230FA70284
:101D180001300310A30CA20CA10CA00CFF3E031D64
:101D28008D2E0130F502031D6E2E2708A30026080C
:101D3800A2002508A1002408A000080083120313AC
:101D48002708D4002608D3002508D2002408D1008B
:101D580024085507A8000030031801302507AA01F8
:101D68000318AA0A5607A9000318AA0A26082A0768
:101D7800AB010318AB0A5707AA000318AB0A2708D8
:101D88002B075807AB002B0883160313C5008312D3
:101D980003132A0883160313C400831203132908A4
:101DA80083160313C300831203132808831603132F
:101DB800C200023083120313A800280883160313F5
:101DC800C6008A15DE24831203132308831603131F
:101DD800C10083120313220883160313C000831261
:101DE8000313210883160313BF008312031320086B
:101DF80083160313BE000800003083120313B700D4
:101E08000030B6000030B5000030B4005408803A05
:101E1800FF00831603134508803A7F0283120313D9
:101E2800031D2C2F83160313440883120313530234
:101E3800031D2C2F83160313430883120313520226
:101E4800031D2C2F83160313420883120313510218
:101E5800031CB12F59080319B12F59088A11002101
:101E68008A15831203132308B7002208B600210835
:101E7800B5002008B40037083604350434040319C3
:101E8800512F3708A7003608A6003508A5003408E2
:101E9800A4008A15A2268A15AF2F831203135108AE
:101EA8005507B0000030031801305207B20103187B
:101EB800B20A5607B1000318B20A53083207B30131
:101EC8000318B30A5707B2000318B30A54083307B4
:101ED8005807B300330883160313C500831203138E
:101EE800320883160313C4008312031331088316C0
:101EF8000313C30083120313300883160313C200AD
:101F08000030C608031D013083120313B0003008E7
:101F180083160313C600AF2F01308312D107003098
:101F280003180130D207003003180130D3070030FE
:101F380003180130D407583083160313BE07E8305E
:101F48000318E930BF07013003180230C00700301A
:101F580003180130C10783120313831603133E09C4
:101F680083120313B000831603133F09831203136C
:101F7800B10083160313400983120313B2008316BA
:101F88000313410983120313B300B00A0319B10AFA
:101F98000319B20A0319B30A8A15DE248A158312B3
:101FA80003132008B00721080318210FDC2FDD2FA9
:101FB800B10722080318220FE22FE32FB2072308E4
:101FC8000318230AB30700303302031DF52F01302D
:101FD8003202031DF52FE8303102031DF52F58306A
:101FE80030020318902F5408AF005308AE0052086F
:081FF800AD005108AC00080027
:04400E0029FFFCFF8B
:00000001FF
